:100000000C942A000C9473000C943C000C943C005B
:100010000C943C000C943C000C943C000C943C0070
:100020000C943C000C943C000C943C000C943C0060
:100030000C943C000C943C000C943C000C943C0050
:100040000C943C000C943C000C943C000C943C0040
:100050000C943C0011241FBECFE5D8E0DEBFCDBF1D
:1000600020E0A0E6B0E001C01D92A736B207E1F79C
:100070000E94C2010C9453040C94000060E081E0E3
:100080000E94BD010895FF920F931F93CF93DF93BA
:100090001F92CDB7DEB7F82E062F0E943E0410E067
:1000A000AE014F5F5F4F602F8F2D0E94A6010E940F
:1000B0004E04813031F41F5F0E9448048EE60E9496
:1000C0004C04123019F089818111EACF0E94440456
:1000D00081E0123008F480E00F90DF91CF911F9102
:1000E0000F91FF9008951F920F920FB60F92112457
:1000F0002F933F934F935F936F937F938F939F9330
:10010000AF93BF93EF93FF9380916400811114C06C
:100110000E94910363E082E00E944300811106C0C7
:100120000E94950381E08093640006C08CE291E018
:100130000E949C030E948D03FF91EF91BF91AF91AC
:100140009F918F917F916F915F914F913F912F91EF
:100150000F900FBE0F901F90189560E080E00E94F6
:10016000AB0160E081E00E94AB0160E082E00E94B0
:10017000AB0161E080E00E94AB0161E081E00E94A0
:10018000AB0161E082E00E94AB0163E082E00E948B
:10019000A0010E947C030E9486030E9437041092F3
:1001A0006400109263008EE390E00E94FE030895C5
:1001B000EF92FF920F931F93CF93DF93E82EF62ECB
:1001C000042F122FC0E0D0E00DC06F2D8E2D0E94A5
:1001D000BD01612F802F0E94BD0182E090E00E944E
:1001E000D2032196CA30D10584F3DF91CF911F91BC
:1001F0000F91FF90EF90089580916400882321F083
:10020000813009F451C00895809163008130E9F094
:1002100018F08230A1F1089560E080E00E94B10101
:1002200085E00E94A70360E080E00E94B701809112
:100230006400813021F483E08093630003C081E097
:100240008093630010926200089585E090E00E9420
:10025000030480916400813021F483E08093630083
:10026000089580916200811104C082E08093630050
:100270000895813009F063C010926300089560E032
:1002800082E00E94B10185E00E94A70360E082E065
:100290000E94B70180916400811151C081E0809378
:1002A0006300809362000895809163008330B1F40D
:1002B00060E081E00E94B70161E082E00E94B1014C
:1002C00020E041E061E081E00E94D80061E082E04E
:1002D0000E94B70161E081E00E94B70160E082E026
:1002E0000E94B10161E080E00E94B10185E00E94BE
:1002F000A70360E082E00E94B70120E041E061E0F6
:1003000081E00E94D80061E080E00E94B70160E0D7
:1003100080E00E94B10161E082E00E94B10185E0CD
:100320000E94A70360E080E00E94B70161E082E0E4
:100330000E94B7011092640081E0809363000895E9
:1003400040E00E94C701811181E008950E940703E7
:10035000811182E0089541E00E94C701811181E08E
:10036000089541E00E944102811182E0089540E039
:100370000E944102811183E008950E94BB02811115
:1003800084E008950E94AD000E94FC00FDCF8830FB
:1003900008F06FC0643008F06EC0423008F06DC0E5
:1003A0006130F9F030F06230A1F1633009F449C0F6
:1003B00066C05AB361E070E0082E02C0660F771F76
:1003C0000A94E2F7242F30E0F90102C0EE0FFF1F7C
:1003D0008A95E2F7CF0160956523862B8ABB80E082
:1003E000089557B361E070E0082E02C0660F771FD2
:1003F0000A94E2F7242F30E0F90102C0EE0FFF1F4C
:100400008A95E2F7CF0160956523862B87BB80E054
:10041000089554B361E070E0082E02C0660F771FA4
:100420000A94E2F7242F30E0F90102C0EE0FFF1F1B
:100430008A95E2F7CF0160956523862B84BB80E027
:10044000089551B361E070E0082E02C0660F771F77
:100450000A94E2F7242F30E0F90102C0EE0FFF1FEB
:100460008A95E2F7CF0160956523862B81BB80E0FA
:10047000089581E0089582E0089583E0089580E082
:100480000895883008F06FC0643008F06EC04230C4
:1004900008F06DC06130F9F030F06230A1F16330E6
:1004A00009F449C066C05BB361E070E0082E02C089
:1004B000660F771F0A94E2F7242F30E0F90102C09B
:1004C000EE0FFF1F8A95E2F7CF0160956523862B1B
:1004D0008BBB80E0089558B361E070E0082E02C045
:1004E000660F771F0A94E2F7242F30E0F90102C06B
:1004F000EE0FFF1F8A95E2F7CF0160956523862BEB
:1005000088BB80E0089555B361E070E0082E02C01A
:10051000660F771F0A94E2F7242F30E0F90102C03A
:10052000EE0FFF1F8A95E2F7CF0160956523862BBA
:1005300085BB80E0089552B361E070E0082E02C0F0
:10054000660F771F0A94E2F7242F30E0F90102C00A
:10055000EE0FFF1F8A95E2F7CF0160956523862B8A
:1005600082BB80E0089581E0089582E0089584E0F0
:10057000089580E00895883008F043C0643008F0A2
:1005800042C06130A1F028F06230F9F0633059F1D7
:100590003CC04BB321E030E0B90102C0660F771FC9
:1005A0008A95E2F7CB0184278BBB80E0089548B39E
:1005B00021E030E0B90102C0660F771F8A95E2F7AB
:1005C000CB01842788BB80E0089545B321E030E06B
:1005D000B90102C0660F771F8A95E2F7CB01842725
:1005E00085BB80E0089542B321E030E0B90102C04C
:1005F000660F771F8A95E2F7CB01842782BB80E0E4
:10060000089581E0089582E0089580E0089588309B
:1006100008F06CC0643008F06BC06130F9F030F065
:100620006230A1F1633009F449C064C099B321E09C
:1006300030E0B901082E02C0660F771F0A94E2F776
:10064000292F30E026233723B90102C0759567951D
:100650008A95E2F7FA01608380E0089596B321E07D
:1006600030E0B901082E02C0660F771F0A94E2F746
:10067000292F30E026233723B90102C075956795ED
:100680008A95E2F7FA01608380E0089593B321E050
:1006900030E0B901082E02C0660F771F0A94E2F716
:1006A000292F30E026233723B90102C075956795BD
:1006B0008A95E2F7FA01608380E0089590B321E023
:1006C00030E0B901082E02C0660F771F0A94E2F7E6
:1006D000292F30E026233723B90102C0759567958D
:1006E0008A95E2F7FA01608380E0089581E0089539
:1006F00082E0089580E008958FB780688FBF85B746
:10070000836085BF8BB780648BBF089583B7877B79
:1007100083BF83B78F7C83BF089583B7856083BF12
:10072000089583B78A7F83BF08958FEF9FEF9093DB
:100730006100809360000895209160003091610015
:10074000820F931F90936100809360000895CF9370
:10075000C82F8CE082BF10926100109260000E944E
:100760008D030EC008B600FE0BC086509F4F9093BD
:1007700061008093600088B7816088BF8CE082BF91
:1007800088EE93E0C89F9001C99F300D112480919D
:100790006000909161008217930720F30E949103FB
:1007A000CF910895CF93DF93EC018CE082BF10923C
:1007B0006100109260000E948D030EC008B600FE1A
:1007C0000BC086509F4F909361008093600088B764
:1007D000816088BF8CE082BF8AEF8C9F90018D9FE3
:1007E000300D112480916000909161008217930771
:1007F00028F30E949103DF91CF91089590936600B2
:10080000809365000895CF93DF93EC018CE082BF65
:1008100010926100109260000E948D0313C008B610
:1008200000FE10C086509F4F90936100809360003F
:1008300088B7816088BF8CE082BFE0916500F0914D
:100840006600099588EE93E0C89F9001C99F300D1E
:10085000D89F300D11248091600090916100821723
:100860009307E8F20E949103DF91CF91089585B537
:10087000877B85BD85B58F7C85BD089585B58760EF
:1008800085BD8EE684BD089585B5887F85BD0895B4
:1008900088B7806488BF089584BD089581E008B654
:0A08A00006FE80E00895F894FFCFF3
:00000001FF
